:020000040800F2
:1000000000040020C10100087135000871350008A6
:10001000612300087135000871350008713500084A
:100020007135000871350008713500084158000825
:1000300071350008713500087135000881AD000880
:100040007135000841880008D1890008218A00081C
:10005000713500087135000881850008D1850008D8
:100060002186000871860008C1860008D177000843
:100070002178000871780008C1780008117900081B
:1000800061790008B1790008C1820008C18B0008BD
:10009000318C0008E18C0008918D00081187000860
:1000A0007135000871350008E1A7000871350008B6
:1000B00041A9000881A90008C1A900089199000878
:1000C000D19A0008713500087135000871350008B3
:1000D00071350008713500087135000841AE00081F
:1000E000A187000891880008E188000871350008A0
:1000F0007135000821A8000871350008017A000850
:1001000071350008218F000801AA00087135000828
:100110007135000871350008A1A700087135000885
:10012000517A0008A17A0008F17A0008417B0008A2
:10013000917B00087135000831890008713500088D
:1001400071350008713500087135000841A10008BB
:10015000E17B0008317C0008817C000871350008D3
:1001600071350008713500087135000871350008D7
:100170008189000871350008F11400087135000804
:1001800071350008713500087135000871350008B7
:1001900071350008713500087135000871350008A7
:1001A0007135000871350008713500087135000897
:1001B0007135000871350008713500087135000887
:1001C00072B62E4880F3098840F20000CCF200009D
:1001D0004EF63471CEF20001086040F20000C0F229
:1001E000F0004EF68851CEF2000108604FF000009A
:1001F000E1EE100A4EF63C71CEF2000108600620D6
:1002000080F31488BFF36F8F0AF062FF4FF0553010
:100210001B491C4A91423CBF41F8040BFAE71A49BA
:10022000164A91423CBF41F8040BFAE71749184AB5
:10023000184B9A423EBF51F8040B42F8040BF8E702
:1002400000201549154A91423CBF41F8040BFAE7DA
:1002500003F076F9124C134DAC4203DA54F8041B48
:100260008847F9E701F054F80F4C104DAC4203DA1F
:1002700054F8041B8847F9E703F072B9000800201E
:10028000000000200004002000040020F8F900080D
:10029000000800204C12002050120020B04E002018
:1002A000C0010008C0010008C0010008C00100082A
:1002B0002DE9F04F2DED108AC1F80CD0D0F80CD0FC
:1002C000BDEC108ABDE8F08F03F092FA04F098FAC2
:1002D000002383F311882846A047002004F060F82B
:1002E00004F076FA03F064FA03F082FE03F080FA79
:1002F00004F086FA00DFFEE70000000000000000C6
:1003000081F0004102E000BF83F0004330B54FEAC6
:1003100041044FEA430594EA050F08BF90EA020F33
:100320001FBF54EA000C55EA020C7FEA645C7FEAC6
:10033000655C00F0E2804FEA5454D4EB5555B8BFE9
:100340006D420CDD2C4480EA020281EA030382EA5A
:10035000000083EA010180EA020281EA0303362DEC
:1003600088BF30BD11F0004F4FEA01314FF4801CBF
:100370004CEA113102D0404261EB410113F0004FD1
:100380004FEA03334CEA133302D0524263EB430388
:1003900094EA050F00F0A780A4F10104D5F1200E26
:1003A0000DDB02FA0EFC22FA05F2801841F1000181
:1003B00003FA0EF2801843FA05F359410EE0A5F155
:1003C00020050EF1200E012A03FA0EFC28BF4CF086
:1003D000020C43FA05F3C01851EBE37101F000453C
:1003E00007D54FF0000EDCF1000C7EEB00006EEB49
:1003F0000101B1F5801F1BD3B1F5001F0CD34908D3
:100400005FEA30004FEA3C0C04F101044FEA445229
:1004100012F5800F80F09A80BCF1004F08BF5FEAB0
:10042000500C50F1000041EB045141EA050130BD90
:100430005FEA4C0C404141EB010111F4801FA4F133
:100440000104E9D191F0000F04BF01460020B1FA88
:1004500081F308BF2033A3F10B03B3F120020CDAC0
:100460000C3208DD02F1140CC2F10C0201FA0CF09E
:1004700021FA02F10CE002F11402D8BFC2F1200C03
:1004800001FA02F120FA0CFCDCBF41EA0C019040B9
:10049000E41AA2BF01EB0451294330BD6FEA040402
:1004A0001F3C1CDA0C340EDC04F11404C4F12002ED
:1004B00020FA04F001FA02F340EA030021FA04F3FF
:1004C00045EA030130BDC4F10C04C4F1200220FA56
:1004D00002F001FA04F340EA0300294630BD21FA94
:1004E00004F0294630BD94F0000F83F4801306BF5A
:1004F00081F480110134013D4EE77FEA645C18BF4E
:100500007FEA655C29D094EA050F08BF90EA020FE4
:1005100005D054EA000C04BF1946104630BD91EADC
:10052000030F1EBF0021002030BD5FEA545C05D1DF
:100530004000494128BF41F0004130BD14F580041E
:100540003CBF01F5801130BD01F0004545F0FE4192
:1005500041F470014FF0000030BD7FEA645C1ABFC7
:10056000194610467FEA655C1CBF0B46024650EAFE
:10057000013406BF52EA033591EA030F41F400212A
:1005800030BD00BF90F0000F04BF0021704730B5B0
:100590004FF4806404F132044FF000054FF0000185
:1005A00050E700BF90F0000F04BF0021704730B546
:1005B0004FF4806404F1320410F0004548BF40421B
:1005C0004FF000013EE700BF42004FEAE2014FEA70
:1005D00031014FEA02701FBF12F07F4393F07F4F4B
:1005E00081F06051704732F07F4208BF704793F04E
:1005F0007F4F04BF41F40021704730B54FF4607461
:1006000001F0004521F000411CE700BF50EA010263
:1006100008BF704730B54FF000050AE050EA01020C
:1006200008BF704730B511F0004502D5404261EB7C
:1006300041014FF4806404F132045FEA915C3FF4BD
:10064000D8AE4FF003025FEADC0C18BF03325FEA5A
:10065000DC0C18BF033202EBDC02C2F1200300FA0B
:1006600003FC20FA02F001FA03FE40EA0E0021FA30
:1006700002F11444BDE600BF0000000000000000CD
:1006800070B54FF0FF0C4CF4E06C1CEA11541DBF28
:100690001CEA135594EA0C0F95EA0C0F00F0DEF8F3
:1006A0002C4481EA030621EA4C5123EA4C5350EAD8
:1006B000013518BF52EA033541F4801143F4801329
:1006C00038D0A0FB02CE4FF00005E1FB02E506F0BA
:1006D0000042E0FB03E54FF00006E1FB03569CF00F
:1006E000000F18BF4EF0010EA4F1FF04B6F5007F15
:1006F00064F5407404D25FEA4E0E6D4146EB060687
:1007000042EAC62141EA55514FEAC52040EA5E500F
:100710004FEACE2EB4F1FD0C88BFBCF5E06F1ED8B9
:10072000BEF1004F08BF5FEA500E50F1000041EBF0
:10073000045170BD06F0004646EA010140EA02009D
:1007400081EA0301B4EB5C04C2BFD4EB0C0541EABF
:10075000045170BD41F480114FF0000E013C00F3D4
:10076000AB8014F1360FDEBF002001F0004170BDF8
:10077000C4F10004203C35DA0C341BDC04F1140411
:10078000C4F1200500FA05F320FA04F001FA05F29D
:1007900040EA020001F0004221F0004110EBD3706A
:1007A00021FA04F642EB06015EEA430E08BF20EA96
:1007B000D37070BDC4F10C04C4F1200500FA04F339
:1007C00020FA05F001FA04F240EA020001F00041CB
:1007D00010EBD37041F100015EEA430E08BF20EA3E
:1007E000D37070BDC4F1200500FA05F24EEA020E86
:1007F00020FA04F301FA05F243EA020321FA04F0B5
:1008000001F0004121FA04F220EA020000EBD3706B
:100810005EEA430E08BF20EAD37070BD94F0000F6B
:100820000FD101F00046400041EB010111F4801F9F
:1008300008BF013CF7D041EA060195F0000F18BF50
:10084000704703F00046520043EB030313F4801F8C
:1008500008BF013DF7D043EA0603704794EA0C0F46
:100860000CEA135518BF95EA0C0F0CD050EA41065C
:1008700018BF52EA4306D1D181EA030101F00041D9
:100880004FF0000070BD50EA410606BF1046194601
:1008900052EA430619D094EA0C0F02D150EA01360D
:1008A00013D195EA0C0F05D152EA03361CBF10464E
:1008B00019460AD181EA030101F0004141F0FE41ED
:1008C00041F470014FF0000070BD41F0FE4141F471
:1008D000780170BD70B54FF0FF0C4CF4E06C1CEA71
:1008E00011541DBF1CEA135594EA0C0F95EA0C0F26
:1008F00000F0A7F8A4EB050481EA030E52EA0335E1
:100900004FEA013100F088804FEA03334FF0805501
:1009100045EA131343EA12634FEA022245EA11152E
:1009200045EA10654FEA00260EF000419D4208BFDF
:10093000964244F1FD0404F5407402D25B084FEA8C
:100940003202B61A65EB03055B084FEA32024FF438
:1009500080104FF4002CB6EB020E75EB030E22BF95
:10096000B61A754640EA0C005B084FEA3202B6EB55
:10097000020E75EB030E22BFB61A754640EA5C0004
:100980005B084FEA3202B6EB020E75EB030E22BF94
:10099000B61A754640EA9C005B084FEA3202B6EB95
:1009A000020E75EB030E22BFB61A754640EADC0054
:1009B00055EA060E18D04FEA051545EA16754FEAB6
:1009C00006164FEAC30343EA52734FEAC2025FEAD4
:1009D0001C1CC0D111F4801F0BD141EA00014FF063
:1009E00000004FF0004CB6E711F4801F04BF014334
:1009F0000020B4F1FD0C88BFBCF5E06F3FF6AFAE50
:100A0000B5EB030C04BFB6EB020C5FEA500C50F1DF
:100A1000000041EB045170BD0EF0004E4EEA113162
:100A200014EB5C04C2BFD4EB0C0541EA045170BD69
:100A300041F480114FF0000E013C90E645EA060EAD
:100A40008DE60CEA135594EA0C0F08BF95EA0C0FDB
:100A50003FF43BAF94EA0C0F0AD150EA01347FF423
:100A600034AF95EA0C0F7FF425AF104619462CE7FA
:100A700095EA0C0F06D152EA03353FF4FDAE10465D
:100A8000194622E750EA410618BF52EA43067FF4AE
:100A9000C5AE50EA41047FF40DAF52EA43057FF43E
:100AA000EBAE12E7000000000000000000000000B4
:100AB0004FEA410212F5001215D211D56FF4787386
:100AC000B3EB625212D94FEAC12343F0004343EA29
:100AD000505311F0004F23FA02F018BF4042704704
:100AE0004FF00000704750EA013005D111F000408E
:100AF00008BF6FF0004070474FF00000704700BF24
:100B000053B94AB9002908BF00281CBF4FF0FF3174
:100B10004FF0FF3000F074B9ADF1080C6DE904CE70
:100B200000F006F8DDF804E0DDE9022304B07047C8
:100B30002DE9F047089E04468846002B4BD18A4297
:100B4000154667D9B2FA82F24AB1C2F1200701FA1A
:100B500002F320FA07F7954047EA030894404FEA6A
:100B6000154E230CB8FBFEF71FFA85FC0EFB178809
:100B700043EA084307FB0CF1994209D9EB1807F146
:100B8000FF3080F01B81994240F21881023F2B44D4
:100B90005B1AA4B2B3FBFEF00EFB103344EA03442D
:100BA00000FB0CFCA44509D92C1900F1FF3380F09F
:100BB0000781A44540F2048102382C4440EA0740F2
:100BC000A4EB0C0400271EB1D4400023C6E9004367
:100BD0003946BDE8F0878B4209D9002E00F0EB8042
:100BE0000027C6E9000138463946BDE8F087B3FA68
:100BF00083F7002F47D18B4202D3824200F2FA8062
:100C0000841A61EB030301209846002EE0D0C6E968
:100C10000048DDE702B9FFDEB2FA82F2002A40F0B6
:100C20008F80491B4FEA154E1FFA85F80127B1FB4B
:100C3000FEFC230C0EFB1C1143EA014308FB0CF1E4
:100C4000994207D9EB180CF1FF3002D2994200F219
:100C5000CD808446591AA3B2B1FBFEF00EFB1014EE
:100C600043EA044408FB00F8A04507D92C1900F119
:100C7000FF3302D2A04500F2B6801846A4EB080468
:100C800040EA0C409FE7C7F1200CBB4022FA0CFE63
:100C90004EEA030E01FA07F420FA0CF521FA0CF3E0
:100CA0004FEA1E482543B3FBF8F92C0C08FB193317
:100CB0001FFA8EFA44EA034309FB0AF49C4202FA43
:100CC00007F200FA07F10BD91EEB030309F1FF301D
:100CD00080F087809C4240F28480A9F1020973442D
:100CE0001B1BADB2B3FBF8F008FB103345EA03441D
:100CF00000FB0AFAA24508D91EEB040400F1FF33F9
:100D00006BD2A24569D90238744440EA0940A0FB7D
:100D10000289A4EB0A044C45C2464B4654D351D039
:100D2000002E69D0B1EB0A0564EB030404FA0CFC55
:100D3000FD40FC404CEA0505C6E90054002747E7A2
:100D4000C2F1200320FA03F7954001FA02F021FADC
:100D500003F34FEA154E3843010CB3FBFEF71FFABD
:100D600085F80EFB173341EA034107FB08F38B427A
:100D700004FA02F407D9691807F1FF3C2FD28B421D
:100D80002DD9023F2944CB1A81B2B3FBFEF00EFBF2
:100D9000103341EA034100FB08F38B4207D969187D
:100DA00000F1FF3C17D28B4215D902382944C91AE9
:100DB00040EA07473BE73746304609E70746E7E69C
:100DC0001846FBE64145ABD2B8EB020A69EB0E02CE
:100DD00001381346A4E76046E9E7184695E76746F9
:100DE000D1E781467CE702382C4447E7ACF1020C9E
:100DF0002B442FE7384608E73746E9E600000000B5
:100E0000704700BF0000000000000000000000006C
:100E1000844641EA000313F003036DD1403A41D305
:100E200051F8043B40F8043B51F8043B40F8043BC4
:100E300051F8043B40F8043B51F8043B40F8043BB4
:100E400051F8043B40F8043B51F8043B40F8043BA4
:100E500051F8043B40F8043B51F8043B40F8043B94
:100E600051F8043B40F8043B51F8043B40F8043B84
:100E700051F8043B40F8043B51F8043B40F8043B74
:100E800051F8043B40F8043B51F8043B40F8043B64
:100E900051F8043B40F8043B51F8043B40F8043B54
:100EA000403ABDD2303211D351F8043B40F8043BF4
:100EB00051F8043B40F8043B51F8043B40F8043B34
:100EC00051F8043B40F8043B103AEDD20C3205D304
:100ED00051F8043B40F8043B043AF9D2043208D0FC
:100EE000D2071CBF11F8013B00F8013B01D30B886E
:100EF00003806046704700BF082A13D38B078DD04C
:100F000010F003038AD0C3F10403D21ADB071CBF1D
:100F100011F8013B00F8013B80D331F8023B20F887
:100F2000023B7BE7043AD9D3013A11F8013B00F8C0
:100F3000013BF9D20B7803704B7843708B78837048
:100F40006046704700000000000000000000000044
:100F500090F800F06DE9024520F007016FF0000CF9
:100F600010F0070491F820F040F049804FF00004A1
:100F70006FF00700D1E9002391F840F000F108007C
:100F800082FA4CF2A4FA8CF283FA4CF3A2FA8CF3B4
:100F90004BBBD1E9022382FA4CF200F10800A4FA1B
:100FA0008CF283FA4CF3A2FA8CF3E3B9D1E904236F
:100FB00082FA4CF200F10800A4FA8CF283FA4CF3A6
:100FC000A2FA8CF37BB9D1E9062301F1200182FA60
:100FD0004CF200F10800A4FA8CF283FA4CF3A2FA66
:100FE0008CF3002BC6D0002A04BF04301A4612BA74
:100FF000B2FA82F2FDE8024500EBD2007047D1E977
:10100000002304F00305C4F100004FEAC50514F005
:10101000040F91F840F00CFA05F562EA05021CBFD6
:1010200063EA050362464FF00004A9E700000000F0
:1010300001F0FF01102A2BDB10F0070F08D010F889
:10104000013B013A8B422DD010F0070F42B3F6D18D
:10105000F0B441EA012141EA014122F007047FF0A6
:1010600000070023F0E80256083C85EA010586EAFD
:10107000010685FA47F5A3FA87F586FA47F6A5FA39
:1010800087F68EB9EED1F0BC01F0FF0102F0070245
:1010900032B110F8013B013A83EA010313B1F8D1F0
:1010A0000020704701387047002D06BF35460338D1
:1010B000073815F0010F07D1013015F4807F02BF0A
:1010C000013015F4C03F0130F0BC0138704700BF5B
:1010D0004FF0FF3C06E000BF4FF0010C02E000BF04
:1010E0004FF0010C4DF804CD4FEA410C7FEA6C5CE7
:1010F0004FEA430C18BF7FEA6C5C1BD001B050EA8A
:10110000410C0CBF52EA430C91EA030F02BF90EA74
:10111000020F0020704710F1000F91EA030F58BF33
:10112000994208BF90422CBFD8176FEAE37040F095
:10113000010070474FEA410C7FEA6C5C02D150EA33
:10114000013C07D14FEA430C7FEA6C5CD6D152EAEE
:10115000033CD3D05DF8040B704700BF84461046B3
:1011600062468C461946634600E000BF01B5FFF7B2
:10117000B7FF002848BF10F1000F01BD4DF808ED82
:10118000FFF7F4FF0CBF012000205DF808FB00BF53
:101190004DF808EDFFF7EAFF34BF012000205DF8AD
:1011A00008FB00BF4DF808EDFFF7E0FF94BF0120FA
:1011B00000205DF808FB00BF4DF808EDFFF7CEFFFB
:1011C00094BF012000205DF808FB00BF4DF808ED3A
:1011D000FFF7C4FF34BF012000205DF808FB00BF0B
:1011E0004FEA410C7FEA6C5C02D150EA013C0AD123
:1011F0004FEA430C7FEA6C5C02D152EA033C02D115
:101200004FF0000070474FF00100704700000000F1
:1012100010B5124C82B02368019304F071FB02F008
:10122000BFF901F045F800F0ABFF01F091FF01F0CC
:101230009FFA01F035FE0A4A0A490B4802F088F885
:10124000002001F05DFD019A23689A4204D102B0AA
:10125000BDE8104001F0BCBD00F0CAF80008002055
:10126000040800200C08002050120020000000009C
:1012700010B52DED028BF1EE407A0E4CFDEEE77AC3
:1012800082B02368019317EE900AB0EE408A01F015
:101290000FFB019A23689A420AD1FDEEC87A17EE35
:1012A000900A02B0BDEC028BBDE8104001F028BBF3
:1012B00000F09EF800080020000000000000000080
:1012C00010B52DED028B0F4CFDEEC07A82B0236875
:1012D000019317EE900AB0EE408A01F0E9FA019A04
:1012E00023689A420CD1B1EE488AFDEEC87A17EE17
:1012F000900A02B0BDEC028BBDE8104001F000BBCB
:1013000000F076F800080020000000000000000057
:1013100000B5324B9FED328A1B6883B00193FFF713
:1013200077FF01F035FB044648B901F0C1FA2046C9
:1013300001F0E6FA01F02CFB04460028F5D0052068
:1013400001F066FD322804D9062001F061FD322843
:101350003AD8002001F05CFD322804D9012001F0C8
:1013600057FD322826D8002001F052FD322804D93A
:10137000012001F04DFD322821D8052001F048FD63
:10138000322804D9062001F043FD322821D800205C
:1013900001F03EFD322812D8052001F039FD322837
:1013A00017D84FF47A7001F083FA4FF47A7001F095
:1013B000A7FAB6E7022001F02BFD3228D3D9B0EE10
:1013C000480AFFF755FFACE7072001F021FD32285E
:1013D000BFD9B0EE480AFFF773FFA2E7000800206C
:1013E00000007A440000000000000000000000003F
:1013F00000B5084B83B01A680192019A1B689A42A3
:1014000005D1054803B05DF804EB02F031B9FFF7F0
:10141000EFFF00BF0008002010EB000800000000F4
:1014200030B5104D81682B680F4A83B001930B686B
:1014300023F001030B608168946A03E0936A1B1B2D
:10144000C72B09D8086810F00100F7D1019A2B6862
:101450009A4204D103B030BD4FF0FF30F6E7FFF7FA
:10146000C7FF00BF00080020F03E00200000000081
:1014700070B51C4E82B03368019311F00C0F0D460D
:10148000044610D0C268117A52683D238B40136025
:101490000378032B21D0062263682270DB6813B126
:1014A000002120469847AA060BD563685B6873B194
:1014B00001993268914213D1204602B0BDE87040D4
:1014C0001847EB0603D563689B68002BF0D1019A9F
:1014D00033689A4204D102B070BDFFF7A1FFDAE78A
:1014E000FFF786FF00080020000000000000000059
:1014F000F0B5284D83B02B68019303F031F902F069
:10150000D7F9254B1E69F20715D55A69234C42F0CD
:1015100001025A612778BB1F012B2AD90522636873
:1015200022701B680BB120469847042F27D0022F4A
:1015300025D003232370B30710D5174A174C5369DE
:1015400043F0020353612378032B1DD06368DB68EB
:101550000622227013B101211048984702F0D0F9F9
:10156000019A2B689A4213D103B0BDE8F04004F011
:1015700087B9019A2B689A420AD103B0F0BD0223C1
:101580002370B307EAD5D8E72046FFF749FFDDE728
:10159000FFF72EFF00080020000005505C1200201D
:1015A0002DE9F0412F4C0578266882B0012D019677
:1015B00006D0019A23689A4252D102B0BDE8F08168
:1015C000294DA842F5D10E4690461F46274AE868A5
:1015D0002B460C2106F0B4FB002839D1D5E90232A4
:1015E000126828339360EB681A68042151611B6804
:1015F000C3F80C80EB681A6817611B68B6085E6058
:101600002B694FB343F480232B61E968184A0968BA
:101610000B60EB6819680B6843F001030B60536BB8
:1016200043F0010353630B214E2006F069F8D5E91E
:101630000113DA6842F00102DA60DA6842F002026D
:10164000DA600A6922F4804222F001021A60B0E7EF
:10165000084802F00DF8C1E723F480232B61D4E79A
:10166000FFF7C6FE000800205C120020711400087D
:101670000038024030EB00080000000000000000CD
:1016800030B5184C0378226883B0022B019205D044
:10169000019A23689A4223D103B030BD124B98427D
:1016A0000546F5D18168114A0B6823F4804323F085
:1016B00001030B608168CB6823F00F03CB60536B91
:1016C00023F0010353634E2006F042F8019A236889
:1016D0009A4205D1E86803B0BDE8304006F098BBF7
:1016E000FFF786FE000800205C1200200038024050
:1016F00000B50F4B0278196883B0022A01910ED110
:1017000081680A6842F002020A6081680A6842F44D
:1017100080420A6081680A6842F001020A60019A08
:101720001B689A4202D103B05DF804FBFFF760FE2C
:101730000008002000000000000000000000000081
:1017400000B50F4B0278196883B0022A01910ED1BF
:1017500081680A6822F002020A6081680A6842F41D
:1017600080420A6081680A6842F001020A60019AB8
:101770001B689A4202D103B05DF804FBFFF738FE04
:101780000008002000000000000000000000000031
:101790002DE9F043254D83B02C680194DDF82890A5
:1017A0000F4616469846044618B111B1204B9A428E
:1017B0002FD9204801F05CFF202383F3118803F028
:1017C00007F801F0F5FF2378012B02D0194801F04A
:1017D0004FFF4246314620464B466760FFF7E0FE2A
:1017E0000223237002F004F803F00AF8124B1A687F
:1017F0009A4204D0996993688A689A420FD3002369
:1018000083F31188019A2B689A420CD103B0BDE88A
:10181000F0839307CDD1B8F1000FCDD1C9E70748C8
:1018200001F026FFEBE7FFF7E3FD00BF0008002013
:10183000FCFF030060EB0008F03E002050EB0008C6
:1018400030B51C4D83B02B680193044658B3202358
:1018500083F3118802F0BCFF01F0AAFF2378022B6A
:1018600002D0154801F004FF2046FFF709FF0123CD
:10187000237001F0BDFF02F0C3FF104B1A689A42BB
:1018800004D0996993688A689A4208D3002383F345
:101890001188019A2B689A4209D103B030BD0848DB
:1018A00001F0E6FEF2E7044801F0E2FECFE7FFF7C1
:1018B0009FFD00BF0008002070EB0008F03E0020F4
:1018C00050EB0008000000000000000000000000D5
:1018D00030B51C4D83B02B680193044658B32023C8
:1018E00083F3118802F074FF01F062FF2378022B6A
:1018F00002D0154801F0BCFE2046FFF7F9FE042394
:10190000237001F075FF02F07BFF104B1A689A42BA
:1019100004D0996993688A689A4208D3002383F3B4
:101920001188019A2B689A4209D103B030BD08484A
:1019300001F09EFEF2E7044801F09AFECFE7FFF7C0
:1019400057FD00BF0008002080EB0008F03E00209B
:1019500050EB000800000000000000000000000044
:1019600030B51C4D83B02B680193044658B3202337
:1019700083F3118802F02CFF01F01AFF2378022B69
:1019800002D0154801F074FE2046FFF7D9FE03236C
:10199000237001F02DFF02F033FF104B1A689A42BA
:1019A00004D0996993688A689A4208D3002383F324
:1019B0001188019A2B689A4209D103B030BD0848BA
:1019C00001F056FEF2E7044801F052FECFE7FFF7C0
:1019D0000FFD00BF00080020A0EB0008F03E002033
:1019E00050EB0008000000000000000000000000B4
:1019F00030B51A4D83B02B680193044638B32023C9
:101A000083F3118802F0E4FE01F0D2FE02232046A7
:101A10002370FFF735FE0123237001F0E9FE02F089
:101A2000EFFE0F4B1A689A4204D0996993688A684E
:101A30009A4208D3002383F31188019A2B689A42B3
:101A400009D103B030BD074801F012FEF2E70648A5
:101A500001F00EFED3E7FFF7CBFC00BF000800202B
:101A6000F03E002050EB0008B0EB00080000000042
:101A700000B5074B07491A68087083B00192019AB4
:101A80001B689A4202D103B05DF804FBFFF7B0FC7B
:101A9000000800207012002000000000000000007C
:101AA00000B5174B174A93F90030116883B00191C4
:101AB00001995BB1012B18D0022B13680ED099420B
:101AC0004FF0000019D103B05DF804FB1368994290
:101AD00013D103B05DF804EB00F0DABA99420CD1EF
:101AE00003B05DF804EB00F093BA1368994204D197
:101AF00003B05DF804EB00F0ABBAFFF779FC00BF70
:101B00002008002000080020000000000000000065
:101B100010B51B4B1B4C93F90030226882B0019228
:101B2000B3B1012B21D0022B06D00020019A2368EB
:101B30009A4223D102B010BD134B1B788BB1019A8E
:101B400023689A421AD102B0BDE8104000F060BA92
:101B5000019A23689A4211D102B0BDE8104000F00A
:101B600097BA00F055FA4000E0E7019A23689A42DC
:101B700004D102B0BDE8104000F06ABAFFF738FCAB
:101B8000200800200008002021080020000000009C
:101B9000F0B5124F83B03B68019300F051F9104B40
:101BA00093F90030022B064606D0019A3B689A4210
:101BB000304610D103B0F0BD0A4B1C7824B1F4E7D5
:101BC000735D33550134A4B2FFF7A2FF6500ADB2D7
:101BD0008542F5D3E9E7FFF70BFC00BF00080020C2
:101BE0002008002021080020000000000000000064
:101BF00000B5084B08491A6883B000200192019A89
:101C00001B6808709A4202D103B05DF804FBFFF72D
:101C1000EFFB00BF0008002077120020000000004A
:101C200010B5104C82B023680193202383F31188F0
:101C300002F0FEFD01F0FCFD0B4B0C4801221A7076
:101C400003F0FEF801F014FE02F00AFE002383F315
:101C50001188019A23689A4201D102B010BDFFF7A2
:101C6000C7FB00BF000800208012002024080020CD
:101C700010B50F4C0F4B2268197082B020230192CF
:101C800083F3118802F0D4FD01F0D2FD0A4803F07D
:101C9000D7F801F0EDFD02F0E3FD002383F3118896
:101CA000019A23689A4201D102B010BDFFF7A0FB50
:101CB000000800207412002024080020000000000A
:101CC00000B51F4A1F4B127818681F4983B0019056
:101CD00001208242087006D0019A1B689A422CD1DA
:101CE00003B05DF804FB1949194A0978D2688142AA
:101CF000126811D01748184900780968012810683F
:101D000006D000030ED51069884212D0D160E3E7F7
:101D10000003FBD41161DFE7106810490003096874
:101D2000F8D5F3E7D0688842F4D10C49096811610D
:101D3000D2E70A490968D160CEE7FFF759FB00BF37
:101D40007612002000080020771200207112002077
:101D50005C12002072120020781200207C120020F9
:101D600030B51B4D1B4C2B78226885B0012B03929C
:101D700025D0FFF7CDFE184B1B78024653B9B0F5BE
:101D8000164F20D8154900930B6815481549FFF7E1
:101D9000FFFC0BE0B0F5964F15D813490F4B0968BF
:101DA0001B680F4800910F49FFF7F2FC01232B70CD
:101DB0000020039A23689A4208D105B030BD084834
:101DC000FFF73EFDD5E74FF0FF30F2E7FFF710FBDE
:101DD00075120020000800207612002078120020E2
:101DE0005C120020C0EB00087C1200200000000004
:101DF00010B50F4C0F48236882B0019302F0E8FE43
:101E00000D4803F0C5F80D4B0A481B7843B102F0AA
:101E100017FF0020019A23689A4206D102B010BD34
:101E200002F00EFF4FF0FF30F4E7FFF7E1FA00BFDA
:101E3000000800202C080020240800208012002028
:101E400070B5294B294C1878294D236882B001932D
:101E50002B7858B9012B03D0264A012310682B7028
:101E6000019A23689A423DD102B070BD012B37D050
:101E7000214E3378012B33D0204B1B78FBB9204BFC
:101E80001C4ADB6811681B681A68100307D5DA68FA
:101E90008A424FF0010221D03270D868E0E71A6917
:101EA0008A424FF0010208D032701869D8E71A69E7
:101EB000096891424FF00102F6D12A70F5E7FFF769
:101EC00097FF0F4B0B49DB681B681A681203EED5AE
:101ED000DA68096891424FF00102DDD12A70DCE72F
:101EE0000020BDE7FFF784FA7612002000080020EA
:101EF0007112002078120020721200207712002048
:101F00005C12002000000000000000000000000043
:101F100010B5084B084C1A68084882B00192019924
:101F20001A68002391422370037001D102B010BDE2
:101F3000FFF75EFA000800207112002072120020E4
:101F400010B5174A174B1278196882B00191F2B197
:101F5000154A1648164C1178002202702270154856
:101F600051B101991B680270994216D1124802B012
:101F7000BDE81040FFF7F4BC019A1B6801709A425B
:101F80000BD10D4802B0BDE81040FFF7A1BC019A8B
:101F90001B689A4201D102B010BDFFF729FA00BFB9
:101FA0007512002000080020731200207212002019
:101FB00071120020801200205C120020000000003E
:101FC00010B50D4B0D4C1A78216882B0012A019191
:101FD00008D0019A23689A420CD102B0BDE81040A3
:101FE000FFF7BEBE0649074800220A701A70FFF7C5
:101FF000FFFCEEE7FFF7FCF9751200200008002057
:10200000741200205C12002000000000000000009C
:1020100010B50A4B0A4A1988146858881B7982B08F
:10202000022B019400FB01F00199136818BF4000D6
:10203000994201D102B010BDFFF7DAF984120020F5
:102040000008002000000000000000000000000068
:1020500010B50A4B0A4A1988146858881B7982B04F
:102060000D2B019400FB01F00199136818BF40008B
:10207000994201D102B010BDFFF7BAF98C120020CD
:102080000008002000000000000000000000000028
:1020900010B50A4B0A4A1988146858881B7982B00F
:1020A000442B019400FB01F00199136818BF400014
:1020B000994201D102B010BDFFF79AF994120020A5
:1020C00000080020000000000000000000000000E8
:1020D00070B5294D82B02B6801930E46032841D874
:1020E000DFE800F01A120A02012922D9234A5369B3
:1020F00083F40063536116E0012926D91F4A53690E
:1021000083F4806353610EE0012918D91B4A536997
:1021100083F04003536106E001291CD9174A536933
:1021200083F020035361019A2B689A4218D102B0C0
:1021300070BD124B4FF4006229B15A83F3E70F4B85
:1021400040220029F9D11A83EDE70C4B4FF480624D
:102150000029F8D0F1E7094B20220029F3D0ECE761
:10216000FFF746F90024E0B231460134FFF7B0FF33
:10217000042CF8D1D7E700BF00080020000C024073
:10218000F0B5104F104C3B6883B0002501932E46EC
:102190000021E8B2FFF79CFF01F01AF868B10135A1
:1021A000042D26706670A67004F10304F0D1019A24
:1021B0003B689A4204D103B0F0BD00F0F1FFEEE7B6
:1021C000FFF716F9000800209C1200200000000014
:1021D00030B5094B094D044607CB83B02B680193FA
:1021E000206001982B6861609842A26001D103B021
:1021F00030BDFFF7FDF800BF9C1200200008002052
:102200002DE9F043254E83B034680194042A9DF8EB
:102210002890144605460F46984639D9B9F1000F63
:1022200014BF00224FF08052640002EB0863013CAF
:102230001C4405F00F0527F01F07202383F31188A6
:1022400002F0C6FA3D4301F0B3FA154B1035DD60DC
:102250001C6101F0CDFA02F0D3FA124B1A689A42CF
:1022600004D0996993688A689A420DD3002383F356
:102270001188BFF36F8FBFF34F8F019A33689A4273
:102280000AD103B0BDE8F083074801F0F1F9EDE7AA
:10229000064801F0EDF9C1E7FFF7AAF800080020B1
:1022A00090ED00E0F03E002060EC000840EC0008FB
:1022B00030B5224D224C2B68224A85B003936368C7
:1022C00043F004036360536A43F480335362202372
:1022D00083F3118802F07CFA01F06AFA17221A4B94
:1022E000E260236101F084FA02F08AFA174B1A685F
:1022F0009A4204D0996993688A689A4218D3002058
:1023000080F31188BFF36F8FBFF34F8F03231D221C
:1023100000904FF00051FFF773FF094A536843F0F4
:1023200001035360039A2B689A4205D105B030BD72
:10233000074801F09DF9E2E7FFF75AF8000800208E
:1023400090ED00E000ED00E009000010F03E0020FC
:1023500060EC000800000000000000000000000029
:1023600070B51A4D1A4C1B4E0FCD0FC49EB02A6883
:10237000336822801D93EFF30981682203A8FEF7DA
:1023800047FD154B9D6AAA0714D4EB0708D5124BDD
:1023900008995B6B114A00910D48802109F000FA01
:1023A0001D9A33689A420FD109481EB0BDE87040AB
:1023B00001F05EB9099A5B6B0092A4F11000084A23
:1023C000802109F0EDF9E0E7FFF712F824EC0008AE
:1023D000A81200200008002000ED00E000EC00083A
:1023E000E0EB00080000000000000000000000001A
:1023F00000B51F4B0278196883B00191E2B11D4A04
:102400004FF4005111834278EAB11A4A4FF48051D7
:1024100011838278F2B1174A4FF480411183C27858
:10242000FAB9144A4FF400415183019A1B689A4249
:102430001CD103B05DF804FB0E4A4FF400515183E8
:102440004278002AE1D10B4A4FF4805151838278BF
:10245000002AE0D1074A4FF480415183C278002A14
:10246000DFD0044A4FF400411183DEE7FEF7C0FFDE
:1024700000080020001002400000000000000000E2
:1024800000B51F4B0278196883B00191E2B11D4A73
:102490004FF4007111834278EAB11A4A4FF4807107
:1024A00011838278F2B1174A4FF400611183C27828
:1024B000FAB9144A4FF480615183019A1B689A4219
:1024C0001CD103B05DF804FB0E4A4FF40071518338
:1024D0004278002AE1D10B4A4FF48071518382780F
:1024E000002AE0D1074A4FF400615183C278002AE4
:1024F000DFD0044A4FF480611183DEE7FEF778FFF6
:102500000008002000100240000000000000000051
:1025100030B50C4A0C4B116883B04FF40055019153
:102520004FF480544FF400414FF480405D835C834E
:102530005883598301991368994201D103B030BD82
:10254000FEF756FF000800200010024000000000C7
:1025500030B50C4A0C4B116883B04FF400750191F3
:102560004FF480744FF480614FF400605D835C83AE
:102570005883598301991368994201D103B030BD42
:10258000FEF736FF000800200010024000000000A7
:1025900010B50B4C0B48236882B09922002101939F
:1025A00003F086FD019A23689A4206D1054800216E
:1025B00002B0BDE8104003F063BEFEF719FF00BF94
:1025C00000080020D04C00200000000000000000A7
:1025D00010B50B4C0B48236882B09922002101935F
:1025E00003F066FD019A23689A4206D1054800214E
:1025F00002B0BDE8104003F043BEFEF7F9FE00BF95
:1026000000080020EC4C002000000000000000004A
:1026100000B5084B83B01A680192019A1B689A4270
:1026200006D10548002103B05DF804EB03F090BD2E
:10263000FEF7DEFE00080020D04C00200000000065
:1026400000B5084B83B01A680192019A1B689A4240
:1026500006D10548002103B05DF804EB03F078BD16
:10266000FEF7C6FE00080020EC4C00200000000031
:1026700070B51A4C1A4E2378326882B0022B019240
:10268000A26811D165781748013505F0070500EB00
:102690008500904763686570013B6360019A336809
:1026A0009A4219D102B070BD012B08D0019933684C
:1026B000994211D10C4802B0BDE8704010476578CE
:1026C0000848013D05F0070500EB85009047636869
:1026D000657001336360E1E7FEF78AFE4413002072
:1026E0000008002000ED0008F0EC000800000000E9
:1026F00070B51A4C1A4E2378326882B0012B0192C1
:10270000A26811D165781748013505F0070500EB7F
:10271000850090476368657001336360019A336890
:102720009A4219D102B070BD022B08D001993368CA
:10273000994211D10C4802B0BDE87040104765784D
:102740000848013D05F0070500EB850090476368E8
:102750006570013B6360E1E7FEF74AFE2813002045
:102760000008002000ED0008F0EC00080000000068
:1027700070B51D4E1D4A1E4B30681E491E4C91609F
:1027800082B00021D46001901C4C1D481D4D9D60FD
:10279000117051705160106154611B481B4A1C4DEF
:1027A000D8601C48197059705960C3E90425FFF7B7
:1027B0001FFE1848FFF764FE1749204603F0E0FBB0
:1027C000204603F015FD2846144903F0D9FB019A71
:1027D00033689A4205D1284602B0BDE8704003F044
:1027E00007BDFEF705FE00BF0008002044130020CF
:1027F00028130020F123000891250008D04C002068
:102800001126000881240008D1250008412600086F
:10281000EC4C0020F0EC0008B0EC000870EC000874
:1028200030B5204D85B02B68039340F24C4399425C
:10283000044628DCA3F69803994212DB4B00002BD8
:1028400081612BD10370036998474FF47A71039A21
:102850002B689A4220D1606905B0BDE8304003F092
:10286000DFBB8361104B02225B42227040F289225F
:1028700093420E4991FBF3F189B208DC0191E368C0
:1028800098470199E3E70122836102702D210191AC
:10289000236998470199DAE7FEF7AAFDE3DD0122F3
:1028A0000270E3E70008002068F7FFFFA086010040
:1028B00030B50E4C83B023680193054600F0F8FD57
:1028C000019A236840B99A420ED10948294603B0BB
:1028D000BDE83040FFF7A4BF9A4205D1284603B0B7
:1028E000BDE8304000F0FCBDFEF782FD000800208E
:1028F000281300200000000000000000000000007D
:1029000030B50E4C83B023680193054600F0D0FD2E
:10291000019A236840B99A420ED10948294603B06A
:10292000BDE83040FFF77CBF9A4205D1284603B08E
:10293000BDE8304000F0ECBDFEF75AFD0008002075
:102940004413002000000000000000000000000010
:102950000A490B4B09680B4A82B0202001914021A3
:1029600058834FF4806559834FF400644FF48040DE
:1029700004215D835C8358835183FEE700080020B7
:10298000000C0240000402400000000000000000B3
:1029900030B5104C104B2268104983B00192186971
:1029A0001A6909691B69019D2468C2F3C032C1F329
:1029B000001102EB4102C3F38033C0F3403003EB5C
:1029C0004203A54200EB430001D103B030BDFEF746
:1029D0000FFD00BF0008002000080240000C02406C
:1029E00010B51E491E4A0B78106882B0013B019059
:1029F000072B0AD8DFE803F012151C1F26290F0445
:102A000018480824012304830B7001991368994224
:102A100021D102B010BD08230B70F6E702230B7022
:102A2000F3E711484FF48054032304830B70ECE761
:102A300004230B70E9E70C484FF48044052304831A
:102A40000B70E2E706230B70DFE706480424072338
:102A500004830B70D9E7FEF7CBFC00BFE016002023
:102A600000080020001002400004024000000000A6
:102A700030B50C4B0C4918680C4A83B04FF48045B4
:102A800001904FF480504883042408204D835483E0
:102A90005083019A1B689A4201D103B030BDFEF702
:102AA000A7FC00BF00080020000402400010024004
:102AB0002DE9F04F594D5A4AAB695A4E9A61A3B06D
:102AC00003AB802205AC30680092CDE903331A468F
:102AD000554B219021460AA8CDE905440024CDE9B3
:102AE000074409941C4600F04BFC0AA94F4A504881
:102AF000DFF860B100F06CFC04F11C08AB6993F8DE
:102B0000219019F004096FD14A4801F001FF4A4BA6
:102B10004A4819691F681A6AA260C4E900711F6BEC
:102B20005969E7605F685A6AA261C4E904715F6B22
:102B3000E7619F6B99699A6AE7629F6827626162A1
:102B4000DF68D969A262DA6ADB6B61632763E363DA
:102B50004946A263426A50F8043F9A4296BF9B1AC4
:102B6000016403644045F5D1802221460AA800F0A3
:102B70005FFCDFF8E4C09CF80030002BBED0DFF82B
:102B8000DCA09AF80090B9F1000F34D0B9F1010F30
:102B9000B4D12B4ADFF8C8E002F12009714652F89F
:102BA000040B51F8043F4A4503440B60F7D1254A12
:102BB00013780133DBB2642B13709FD1224A234870
:102BC0005EF8043F8BFB0371DB17C3EB61137045A9
:102BD00042F8043BF4D100238CF80030AB6993F841
:102BE000219019F004098FD0219A33689A4213D1A9
:102BF00023B0BDE8F08F20224946134808F080FD3D
:102C000020224946124808F07BFD0E4A012382F833
:102C100000908AF8003071E7FEF7EAFBF03E0020F2
:102C200020ED000800080020E813002060ED0008F7
:102C3000501200204008002080130020E4130020E0
:102C400028140020C113002048140020E0130020A5
:102C5000C41300201F85EB51C0130020C2130020B5
:102C6000C013002000000000000000000000000071
:102C700070B502691E4D52882B6882B006460C461C
:102C80001C4801939200002108F03AFD33695B88EB
:102C90005BB1184AA11E002331F8020F42F8040B61
:102CA0003069408801339842F6D8202383F3118895
:102CB00001F0BEFD00F0BCFD00F04AFE0E48836846
:102CC000002B0FDD00F0D4FD01F0CAFD002383F3DB
:102CD0001188019A2B68094901209A42087004D191
:102CE00002B070BD01F04CFEECE7FEF781FB00BFC7
:102CF000000800208013002040080020E01600207B
:102D0000F0B5294D294C2E78236885B0012E039308
:102D100005D0039A23689A4244D105B0F0BD01283A
:102D200007462CD00021284602F002FF2846204901
:102D3000204A334602F07CFF1F49204803F020F967
:102D40004FF4967200211D4803F0B2F900211B4890
:102D500003F096FA194803F04BFA4FF482720121FE
:102D6000164803F0A5F9002300931548154B40229F
:102D70004FF41E7101F0FCF9134B1860C9E70E4EB9
:102D800041F66A0328460021736002F0D1FE28460E
:102D90003B46084A064902F04BFF3146074803F01C
:102DA000EFF8CDE7FEF724FB1446002000080020D2
:102DB00030ED0008601300204C080020B44C0020C7
:102DC00068140020B12A0008E4130020000000006D
:102DD00030B50C4D0C4A2B680C4C83B0002101938C
:102DE000012311702370142001F01AFA2378002BAC
:102DF000F9D1019A2B689A4201D103B030BDFEF798
:102E0000F7FA00BF00080020C2130020C013002002
:102E100010B50E4A82B013680193072811D80C49E7
:102E200000F1180300F1100451F8233051F8240088
:102E3000C01A20EAE07001991368994203D102B0E8
:102E400010BD0020F7E7FEF7D3FA00BF000800200E
:102E5000E813002000000000000000000000000057
:102E600000B50A4B0A481B680A4C87B069460593AF
:102E700001224FF4F07302F0C3F8012002F0A8F928
:102E8000684602F005F92060F7E700BF000800205F
:102E9000284D0020E4160020000000000000000083
:102EA00010B50C4C0C4923680C4884B0039303F014
:102EB000CFFE002300934022094B0A484FF41E71B5
:102EC00001F056F9039A23689A4201D104B010BD6B
:102ED000FEF78EFA0008002080080020244D002014
:102EE000612E0008E816002000000000000000002D
:102EF0002DE9F04F884C894AA36989491268996184
:102F000085B0002332200392029301F089F9DFF8A3
:102F10003082DFF830A2DFF81C92DFF80CB22025F7
:102F200085F3118801F054FC00F042FCA66A00F021
:102F30005FFC01F065FC2368A34207D0A2699B688F
:102F400092689A4202D2774800F092FB002383F302
:102F5000118885F3118801F03BFC00F029FC98F8FA
:102F60000030012B00F0A38000F042FC01F048FC8F
:102F70002368A34207D0A2699B6892689A4202D252
:102F8000684800F075FB002383F311889AF800303D
:102F9000012B06D1FEF7D4FFFEF72AFF002840F0F0
:102FA0008A8040F6FC72FF215F4808F0A9FB5F4B66
:102FB0001B78012B77D04FF06533C9E90033C9F88E
:102FC00008305B4803F04CFF574B5A4A58480C21D5
:102FD00003F0C6FF564803F083FF00230293029BD1
:102FE00042F20F72934206D800BF029B0133029354
:102FF000029B9342F8D99BF80000FEF739FD9AF83E
:103000000030012B49D19BF80130B72B88D1FEF756
:1030100047FD494E8308A6FB0323C3F3CF17009750
:10302000FEF73EFD8308A6FB0323DB09C3EB8323E6
:10303000A0EB83030193FEF7ABFD404B18603FB359
:1030400000273E463A4803F00BFF3C4B38481A68CD
:10305000354B3A4440F6FC7103F082FF344803F0EC
:103060003FFF00230293062E029B48D943F6972286
:10307000934206D800BF029B01330293029B934206
:10308000F8D90136009AB3B29A4207F6FC77D9D83C
:10309000019B9BB9FEF73CFF42E706F13201304647
:1030A00001F0FEF83CE72348FFF792F889E7032098
:1030B00000F016FE58E7FEF783FF31E71C4803F0E7
:1030C000CFFE1E4B009A1E681948174B0199C2EBA0
:1030D000822206EB820203F043FF154803F000FF53
:1030E00000230293029B43F697229342D2D800BF5B
:1030F000029B01330293029B9342F8D9CAE741F243
:1031000087329342BDD800BF029B01330293029BDA
:103110009342F8D9B5E700BFF03E00200008002038
:1031200090ED000870ED00086C190020681900206F
:103130004C4C0020E82E00200102082064190020D9
:103140006829002060190020000000000000000035
:1031500010B50D4C0D4923680D4884B0039303F05E
:1031600037FE0023009340220A4B0B484FF4AF6117
:1031700000F0FEFF039A236808499A42086001D1D3
:1031800004B010BDFEF734F90008002080ED0008FF
:103190004C4C0020F12E0008702900206C290020E2
:1031A00000B5084B08491A6883B001200192019AC2
:1031B0001B6808709A4202D103B05DF804FBFEF769
:1031C00017F900BF00080020681900200000000067
:1031D00000B5074B07491A68087883B00192019A35
:1031E0001B689A4202D103B05DF804FBFEF700F9B8
:1031F0000008002068190020000000000000000006
:1032000000B5084B83B01A680192019A1B689A4274
:1032100005D1054803B05DF804EB01F0D9BCFEF719
:10322000E7F800BF000800208C0800200000000024
:1032300000B5084B83B01A680192019A1B689A4244
:1032400005D1054803B05DF804EB01F0F9BCFEF7C9
:10325000CFF800BF000800208C080020000000000C
:1032600070B50D4C82B0236801930D1E06460DDD2E
:10327000284602F07DFA18B90C2333604FF0FF3076
:10328000019A23689A4205D102B070BD034800F04C
:10329000EFF9EDE7FEF7ACF800080020A0ED00081C
:1032A00000B5064B83B01A680192019A1B689A42D6
:1032B00002D103B05DF804FBFEF79AF80008002085
:1032C00000B5074B83B01A680192019A1B689A42B5
:1032D00004D103B05DF804EB01F07ABCFEF788F886
:1032E00000080020000000000000000000000000B6
:1032F00000B5074B83B01A680192019A1B689A4285
:1033000004D103B05DF804EB01F09ABCFEF770F84D
:103310000008002000000000000000000000000085
:1033200000B5074B83B01A680192019A1B689A4254
:1033300004D103B05DF804EB01F0AABDFEF758F824
:103340000008002000000000000000000000000055
:1033500010B5084B82B01C68019400240460019CE5
:103360001B689C42C0E9011201D102B010BDFEF7FA
:103370003FF800BF0008002000000000000000002F
:103380002DE9F0430E4D83B02C6801940446994614
:103390000F46164610304C220021DDF8288008F038
:1033A000AFF9C4F80090019A2B68E6609A42C4E92C
:1033B000018702D103B0BDE8F083FEF719F800BF22
:1033C00000080020000000000000000000000000D5
:1033D000F0B5144E83B001F1100317463268019224
:1033E0000446412218460D46002108F089F9394665
:1033F000402208F01DFA6068FFF762FF236803B1FE
:10340000AB652560A068FFF78BFF019A33689A428D
:1034100005D1606803B0BDE8F040FFF769BFFDF774
:10342000E7FF00BF000800200000000000000000CF
:10343000F0B51C4E436883B0054693423068019056
:1034400006D20020019A33689A4229D103B0F0BD18
:1034500014460F46A868FFF733FF2246394628680E
:10346000FDF7D6FC012385F85130E868FFF758FFD7
:103470006C6D84B123681868FFF722FF23689D6094
:1034800023685868FFF74CFF23681868FFF730FF80
:103490006468002CEED1A868FFF72AFF0120D1E76D
:1034A000FDF7A6FF0008002000000000000000005B
:1034B00000B5074B07491A68087883B00192019A52
:1034C0001B689A4202D103B05DF804FBFDF790FF40
:1034D00000080020E43E0020000000000000000082
:1034E00000B5074B07491A68086083B00192019A3A
:1034F0001B689A4202D103B05DF804FBFDF778FF28
:1035000000080020E83E002000000000000000004D
:1035100000B5074B07491A68086083B00192019A09
:103520001B689A4202D103B05DF804FBFDF760FF0F
:1035300000080020EC3E0020000000000000000019
:1035400000B5064B83B01A680192019A1B689A4233
:1035500002D103B05DF804FBFDF74AFF000800202C
:10356000024B82B01B680193FEE700BF00080020F9
:1035700000B5044B04481B6883B0019300F078F851
:10358000FEE700BF00080020B0ED000800000000CA
:10359000024B82B01B680193FEE700BF00080020C9
:1035A000F0B5294E294B3268294885B00024039292
:1035B0009C60D968274A4FF6FF0529400A43DA6024
:1035C000C2682549254D42F08072C2600A6842F007
:1035D00001020A6010202022D87783F8222000F010
:1035E000DFFA00F045FA01F043F802F099F802F032
:1035F00007F901F095F800F0FBF9402105F5886026
:1036000000F01EFD0127164BC36180F82070A861F1
:1036100000F0A6F884F3118862B6AB69114A9A618A
:103620004FF4C4713A46104B009405F59D6000F0CC
:103630009FFD039A33680D4981619A4201D105B01B
:10364000F0BDFDF7D5FE00BF0008002000ED00E052
:10365000F0ED00E00003FA05001000E0F03E00206D
:103660000004002030EF000891350008D0ED00087C
:1036700000B5054B83B01B680193044672B6FFF793
:1036800067F9024BDC62FEE700080020F03E0020F4
:103690002DE9F047DFF890A0224DDAF8003082B033
:1036A000019300F055F9AB6993F8232012B1013A68
:1036B00083F823205A6ADFF8748001325A6200F0DE
:1036C00047F9AB6AEA6901334245AB6220D093689F
:1036D000013B9360EC69A668D6B94FF020092368D6
:1036E000E768E660C3F804802368EB6100F0C0F887
:1036F00001F0B6F886F311882069B84789F311887C
:1037000001F096F800F094F8EC69A368002BE6D07D
:10371000019ADAF800309A4202D102B0BDE8F0878F
:10372000FDF766FEF03E0020000800200C3F002060
:1037300010B5094C094A236882B001935168536857
:103740005B1A9842FBD8019A23689A4201D102B0D1
:1037500010BDFDF74DFE00BF00080020001000E086
:1037600000B50E4A0E4B116B186883B0019009B971
:10377000526B4AB1019A1B689A420CD1094803B0B6
:103780005DF804EBFFF774BF019A1B689A4202D1FF
:1037900003B05DF804FBFDF72BFE00BFF03E0020F8
:1037A00000080020E0ED000800000000000000001C
:1037B00030B50B4C0B4D236B2A6883B001920BB9CB
:1037C000636B13B10848FFF753FF019A2B6801217F
:1037D0009A42616301D103B030BDFDF709FE00BF1D
:1037E000F03E00200008002010EE0008000000005D
:1037F00030B50C4C0C4D236B2A6883B0019253B941
:10380000636B002B07DD019A2B6800219A426163EC
:1038100005D103B030BD0548FFF72AFFF3E7FDF7F8
:10382000E7FD00BFF03E00200008002030EE000859
:1038300030B50B4C0B4D236B2A6883B0002B0192E3
:1038400001DD636B13B10848FFF712FF019A2B6883
:1038500001219A42616301D103B030BDFDF7C8FD7B
:10386000F03E00200008002020EE000800000000CC
:1038700030B50C4C0C4D236B2A6883B0002B0192A1
:103880000ADD636B002B07DD019A2B6800219A4249
:10389000616305D103B030BD0448FFF7E9FEF3E7EB
:1038A000FDF7A6FDF03E00200008002040EE0008D5
:1038B00030B50F4D83B02B680193202383F311881B
:1038C0000C4C236B002B01DB626B1AB10A48FFF72B
:1038D000CFFE236B01332363002383F31188019A06
:1038E0002B689A4201D103B030BDFDF781FD00BFC6
:1038F00000080020F03E0020F0ED0008000000006D
:1039000030B50F4D83B02B680193202383F31188CA
:103910000C4C236B002B01DD626B1AB10A48FFF7D8
:10392000A7FE236B013B2363002383F31188019AD5
:103930002B689A4201D103B030BDFDF759FD00BF9D
:1039400000080020F03E002000EE0008000000000B
:1039500000B50F4A0F4B116B186883B00029019016
:1039600009DB526B002A06DD019A1B689A420CD1D2
:1039700003B05DF804FB019A1B689A4205D1064822
:1039800003B05DF804EBFFF773BEFDF731FD00BF38
:10399000F03E00200008002050EE0008000000006B
:1039A00000B50E4A0E4B116B186883B0019049B9EF
:1039B000526B002A06DD019A1B689A420CD103B0B3
:1039C0005DF804FB019A1B689A4205D1054803B0D3
:1039D0005DF804EBFFF74CBEFDF70AFDF03E00205A
:1039E0000008002060EE0008000000000000000059
:1039F00010B5084A084B116882B040240191019922
:103A0000126818199142C3E90E4001D102B010BDED
:103A1000FDF7EEFC00080020F03E00200000000052
:103A200010B51149114B0A6882B00192DA6B9C6A99
:103A30001460DA6B9C695460DA6B846A9460DA6BA8
:103A400090F820001073DA6B03F588601032824220
:103A500028BF03F14002DA63019A0B689A4201D150
:103A600002B010BDFDF7C4FC00080020F03E0020AD
:103A700010B50B4A0B4B116882B04FF0FF34019127
:103A800000219962019811685C6203F11C0288426E
:103A9000C3E9072201D102B010BDFDF7A9FC00BFA8
:103AA00000080020F03E00200000000000000000A0
:103AB0002DE9F041184E82B00546306801900C4661
:103AC00017469846FFF744FF05B3FFB1F4B1C5E9C7
:103AD00003781248C3699A68944204D91B68A41AEF
:103AE0009A68A242FAD32B605A686A6015605D60DA
:103AF000AC609968019D3268091B95424FF0FF3414
:103B00009960446206D102B0BDE8F0810448FFF735
:103B1000AFFDDCE7FDF76CFC00080020F03E002064
:103B200070EE00080000000000000000000000002F
:103B300030B5164D83B004462B680193FFF708FF9C
:103B4000ECB1E368BBB12268A068936801990344B3
:103B50009360D4E900231A6020682B680C4A6568DA
:103B6000456099424FF000054FF0FF30E56050622C
:103B700009D103B030BD0748FFF77AFDE3E70548F8
:103B8000FFF776FDDDE7FDF733FC00BF00080020FE
:103B9000F03E002080EE0008000000000000000061
:103BA00000B50A4A0A4B11681B6083B000200191DE
:103BB000019912685B609142C3E90433986002D1B5
:103BC00003B05DF804FBFDF713FC00BF0008002004
:103BD000F03E002000000000000000000000000097
:103BE00030B5164D83B004462B680193FFF7B0FE45
:103BF000ECB194F82030B3B10F2B14D00022A1689F
:103C00000F4B84F820201B689A688A42FBD22360FD
:103C10005A686260146001992A685C60914220468B
:103C200009D103B030BD0748FFF722FDE6E705489C
:103C3000FFF71EFDDDE7FDF7DBFB00BF00080020FE
:103C4000F03E002090EE00080000000000000000A0
:103C500070B5204D82B02B6801930446202383F376
:103C6000118800F0E5FDFFF7E3FD94F82030072B05
:103C700011D8DFE803F0161010230A04100AA66A10
:103C8000FFF766FEB3680133B360D4E900231A601E
:103C9000D4E900325A604FF0FF33A3622046FFF7A9
:103CA0009FFFFFF7E5FD00F0DBFD002383F31188A4
:103CB000019A2B689A420BD102B070BDA36A002210
:103CC0001A604FF0FF33A3622046FFF789FFE8E751
:103CD000FDF78EFB0008002000000000000000003F
:103CE000F0B5194E194C336883B007460193FFF7BE
:103CF00057FEA569236885F82070142285F82320D3
:103D00001A68226001215460284683F82010A361BC
:103D1000FFF786FE2946A06900F03AFDEFF309831C
:103D2000EA69643B9A4202D90948FFF7A1FC019A6B
:103D300033689A4206D1A069294603B0BDE8F04035
:103D4000FCF7B6BAFDF754FB00080020F03E002057
:103D5000A0EE0008000000000000000000000000CD
:103D6000F0B5154C87B0236805930E460746FFF75C
:103D700017FE731C18D0114D114AAB6931466846C5
:103D8000FFF796FE3846FFF7ABFFFFF7E1FD039B19
:103D900013B16846FFF7CCFE059A2368A9699A42D9
:103DA000886A06D107B0F0BD3846FFF799FF034D8A
:103DB000F2E7FDF71DFB00BF00080020F03E0020E9
:103DC000513C00080000000000000000000000005E
:103DD000F0B51E4D1E4E2B6883B0044601930F466E
:103DE000FFF7DEFDB069A7628368A2689A421DD919
:103DF000FFF7F6FE0123074684F82030B461FFF791
:103E00000FFE3946204600F0C3FCEFF30983FA6940
:103E1000643B9A4214D8019A2B689A4214D13946CD
:103E2000204603B0BDE8F040FCF742BA019A2B6887
:103E30009A4209D1204603B0BDE8F040FFF7D0BE5A
:103E40000448FFF715FCE6E7FDF7D2FA000800206A
:103E5000F03E0020A0EE000800000000000000007E
:103E600010B50E490E4B8A69086892F823101C6839
:103E70008068926882B0019449B9904234BF0020B2
:103E80000120019A1B689A4206D102B010BD9042EF
:103E900094BF00200120F4E7FDF7AAFAF03E0020CD
:103EA00000080020000000000000000000000000EA
:103EB00070B5184C184E2368A5691A6822605460C2
:103EC000012283F8202082B01422316885F8232053
:103ED0002846A3610191FFF783FE2846FFF7A0FD66
:103EE0002946A06900F054FCEFF30983EA69643BBA
:103EF0009A4202D90948FFF7BBFB019A33689A42FC
:103F000006D1A069294602B0BDE87040FCF7D0B9DF
:103F1000FDF76EFAF03E002000080020A0EE000839
:103F200070B51C4D1C4E2A68AC6913682B600121CA
:103F300082B05D60002082F82010AA613268A1681A
:103F400084F82000019200E01B689A688A42FBD83E
:103F500023605A686260204614605C60FFF760FD71
:103F60002146A86900F014FCEFF30983E269643B81
:103F70009A4202D90948FFF77BFB019A33689A42BB
:103F800006D1A869214602B0BDE87040FCF790B99F
:103F9000FDF72EFAF03E002000080020A0EE0008F9
:103FA00010B50F4C82B023680193FFF7F9FCFFF7BF
:103FB000CFFC0C4B1A689B6992689B689A42019AE5
:103FC000236803D89A4208D102B010BD9A4204D1A6
:103FD00002B0BDE81040FFF7A3BFFDF709FA00BF2C
:103FE00000080020F03E002000000000000000005B
:103FF00000B50E4A0E4B9269196892F8232083B0DF
:10400000019142B1019A1B689A420DD103B05DF84B
:1040100004EBFFF785BF019A1B689A4204D103B0F5
:104020005DF804EBFFF744BFFDF7E2F9F03E002036
:104030000008002000000000000000000000000058
:10404000F0B51A4A1A4D02610446816083B0142308
:1040500050692E68616484F823300227002301210F
:10406000278484F82210C4E90F3304F16801A361A6
:10407000019604F12C07636204F1500604F1300349
:1040800060610461C4E90C33E1613046E762546168
:1040900000F086FA304600F0A3FA019A2B689A42A3
:1040A00002D1204603B0F0BDFDF7A2F9F03E00209A
:1040B00000080020000000000000000000000000D8
:1040C00010B5094B82B01C680194884203D200F8F5
:1040D000012B8142FBD1019A1B689A4201D102B0A7
:1040E00010BDFDF785F900BF0008002000000000AA
:1040F0002DE9F043184E83B0346801940546DDF88D
:1041000028900C4617469846FFF722FC15B1B4F5E7
:10411000BC7F19D21148FFF7ABFAA4F1640129441E
:10412000E960C1F84080EB68019AC3F844903368B5
:10413000E9680B4808669A420CD13946284603B014
:10414000BDE8F043FFF77CBF7F2FE3D8B8F1000F45
:10415000E3D1DFE7FDF74CF900080020F0EE00089E
:10416000C90200080000000000000000000000007C
:104170002DE9F04FDFF8A48087B0D8F80040DDF8D3
:104180004090059407468A46934600F16806044627
:10419000FF2504F8015BA642FBD107EB0A05A54207
:1041A00004D9552604F8016BA542FBD103932022C4
:1041B00082F3118800F00CFBFFF7FAFA039BCDF8AD
:1041C00000905A4651463846FFF792FF00210446B8
:1041D000FFF7FEFDFFF70CFB00F012FB0D4B1A681A
:1041E0009A4204D0996993688A689A420BD3002353
:1041F00083F31188059AD8F800309A42204606D1F8
:1042000007B0BDE8F08F0448FFF732FAEFE7FDF79B
:10421000EFF800BFF03E0020B0EE000800080020DC
:1042200030B5184C83B0236801930546202383F3EF
:10423000118800F0CDFAFFF7BBFA15B91248FFF765
:1042400017FA29460820FFF78BFDFFF7D1FA00F097
:10425000D7FA0E4B1A689A4204D0996993688A6813
:104260009A4208D3002383F31188019A23689A4263
:1042700005D103B030BD0648FFF7FAF9F2E7FDF7C4
:10428000B7F800BF00080020C0EE0008F03E002094
:10429000B0EE000800000000000000000000000078
:1042A000F0B51C4F83B03B68019304460E462023B3
:1042B00083F31188184D00F08BFAFFF779FAA96A99
:1042C000331B0C1B9C4219D3FFF792FA00F098FAAB
:1042D0002B68AB4204D0AA699B6892689A4209D3C2
:1042E000002383F31188019A3B689A4230460FD12C
:1042F00003B0F0BD0948FFF7BBF9F1E7741A02D12A
:104300000748FFF7B5F921460820FFF729FDDBE74D
:10431000FDF76EF800080020F03E0020B0EE000827
:10432000C0EE0008000000000000000000000000D7
:1043300070B5164B164E9C693268E36AA06282B073
:1043400004F12C05AB42019207D01A68E2621846CC
:10435000FFF746FCE36AAB42F7D194F821309B07A4
:1043600005D1D4E904231A61D4E904325A610F203B
:10437000FFF7B6FC019A33689A4205D1054802B0AE
:10438000BDE87040FFF774B9FDF732F8F03E002049
:104390000008002000EF00080000000000000000FE
:1043A00030B50C4C83B0236801930546202383F37A
:1043B000118800F00DFAFFF7FBF9019A23689A4281
:1043C00005D1284603B0BDE83040FFF7B1BFFDF787
:1043D0000FF800BF000800200000000000000000EF
:1043E000F0B50D4D0D4E03682A68B76983B00446D9
:1043F000019213B10A48FFF73BF927600320BC6222
:10440000FFF76EFC019A2B68B1699A42886A01D164
:1044100003B0F0BDFCF7ECFF00080020F03E0020E8
:1044200010EF000800000000000000000000000085
:10443000F0B5124D04682B6883B00193B4B194F8C1
:104440002030032B06460F460CD100233360019A1F
:104450002B68A7629A420FD1204603B0BDE8F04016
:10446000FFF7BEBB0648FFF703F9EEE7019A2B689A
:104470009A4201D103B0F0BDFCF7BAFF000800205A
:1044800020EF000800000000000000000000000015
:1044900030B5104A83B01368019381B10E4B019D72
:1044A0009B69186044685C602360126843609542B1
:1044B0000DD1042003B0BDE83040FFF751BC019995
:1044C000136899424FF0FF3001D103B030BDFCF7C3
:1044D0008FFF00BF00080020F03E00200000000019
:1044E00070B5124D04682B6882B0A042019315D0BC
:1044F00023680360586094F82030042B0E4602D0E5
:104500000B48FFF7B5F8019A2B68A6629A420BD1C7
:10451000204602B0BDE87040FFF762BB019A2B68ED
:104520009A4201D102B070BDFCF762FF0008002082
:10453000D0EE0008000000000000000000000000B5
:104540002DE9F041DFF850800468D8F8003082B0DF
:10455000A042019313D00F4F05460E4623682B60EF
:104560005D6094F82030042B02D03846FFF780F8C5
:10457000A6622046FFF734FB2C68A542EED1019AD3
:10458000D8F800309A4202D102B0BDE8F081FCF7C1
:104590002FFF00BFD0EE0008000800200000000040
:1045A00030B50B4B83B01A6801924FF0FF320260B6
:1045B00001991A680024002300259142C0E90445AE
:1045C000C0E90133C36001D103B030BDFCF710FF77
:1045D00000080020000000000000000000000000B3
:1045E00000B5084B084A196883B001915168019AD7
:1045F0001B6881609A4202D103B05DF804FBFCF7AE
:10460000F7FE00BF00080020001000E000000000DE
:10461000F0B51449144B0A68846883B00192134AB8
:104620005B68D2F8A864C2681B1BD0E9044501325C
:104630009B1BC26042688360E61845F10007934205
:10464000C0E9046709D80268934238BF0360019A41
:104650000B689A4203D103B0F0BD4360F7E7FCF763
:10466000C7FE00BF00080020001000E0F03E002060
:1046700030B5114D114C2B6889B04FF0FF310793C5
:10468000002300226846C4F8A834CDE9013303931F
:104690000023CDE904230091FFF7A2FF6846FFF74E
:1046A000B7FF079A2B680299C4F8A8149A4201D15F
:1046B00009B030BDFCF79CFE00080020F03E002051
:1046C0002DE97048134E144B326883B001925B6839
:1046D0008B60D0E902411B1BD0E90445426814EB12
:1046E000030B45F1000C01319342C0E90231C0E9EE
:1046F00004BC0AD80268934238BF0360019A336849
:104700009A4204D103B0BDE870884360F6E7FCF735
:104710006FFE00BF00080020001000E00000000055
:1047200030B50D4D0D4C2B6883B004F597600193A7
:104730000023C4F8B034C4F8B434FFF731FF019A51
:104740002B689A4206D104F59A6003B0BDE8304068
:10475000FFF726BFFCF74CFE00080020F03E0020CB
:1047600000B50949094A0B6883B001930198D2F852
:10477000B034096801338842C2F8B03402D103B0C2
:104780005DF804FBFCF734FE00080020F03E00203A
:1047900070B50D4C0D4A236882B00193019DD2F88B
:1047A000B43424680133A542C2F8B43409D10E46AA
:1047B00000F1500106F1500002B0BDE87040FFF773
:1047C0007FBFFCF715FE00BF00080020F03E002070
:1047D00000B5084B83B01A680192019A1B689A428F
:1047E00005D1054803B05DF804EBFFF7F9BEFCF70F
:1047F000FFFD00BF00080020A843002000000000CB
:1048000000B5084B83B01A680192019A1B689A425E
:1048100005D1054803B05DF804EBFFF7F9BEFCF7DE
:10482000E7FD00BF00080020A843002000000000B2
:1048300000B5084B83B01A680192019A1B689A422E
:1048400005D1054803B05DF804EBFFF7C9BEFCF7DE
:10485000CFFD00BF00080020C04300200000000082
:1048600000B5084B83B01A680192019A1B689A42FE
:1048700005D1054803B05DF804EBFFF7C9BEFCF7AE
:10488000B7FD00BF00080020C0430020000000006A
:1048900070B51B4D82B004462B680193FFF780F87A
:1048A00044B3A3682268002B10DBA24203D0154852
:1048B000FEF7DEFEA368013B002BA3600CDB0020AB
:1048C000019A2B689A4219D102B070BDA242EED073
:1048D000013B002BA360F2DA0B4EB3699C621C60B3
:1048E00062685A60052013606360FFF7F9F9B369E5
:1048F000986AE5E70348FEF7BBFED2E7FCF778FDD0
:104900000008002060EF0008F03E002000000000DA
:1049100030B5164C83B0236801930546202383F3FA
:104920001188FFF755FFFEF743FF2846FFF7B0FF5A
:104930000546FEF75DFFFFF763FF0D4B1A689A42CD
:1049400004D0996993688A689A4209D3002383F353
:104950001188019A23689A42284605D103B030BDD8
:104960000448FEF785FEF1E7FCF742FD0008002051
:10497000F03E002050EF00080000000000000000A2
:1049800030B51C4D83B004462B680193FEF7E0FF61
:104990004CB3A3682268002B0FDBA24203D0164859
:1049A000FEF766FEA3680133002BA3600BDD019ABE
:1049B0002B689A421BD103B030BDA242EFD0013325
:1049C000002BA360F3DC20680199036823602A6848
:1049D0005C6091424FF00003836208D103B0BDE8F0
:1049E0003040FFF7FDB80448FEF742FED1E7FCF780
:1049F000FFFC00BF0008002070EF0008000000006E
:104A000030B50B4D83B02B680193044650B1246040
:104A100001992A68646000239142A360236105D153
:104A200003B030BD0348FEF723FEF0E7FCF7E0FCDF
:104A30000008002090EF00080000000000000000C7
:104A4000F0B55D4E5D4B32689D6983B004460192BE
:104A5000FEF7A6FF002C00F08480A06823690028E0
:104A600043D0002B40F39780854276D0AA688368B4
:104A70009A4208D990F820308260062B40D0072B4C
:104A800073D0002B5DD02746234603E09968AA68BF
:104A9000914233D31B689C42F8D12F607B686B60D6
:104AA00006201D607D60AC62FFF71AF9A368AB4277
:104AB00002D04348FEF7DCFD2B6CA34202D04048F5
:104AC000FEF7D6FD2369012B05D1019A33689A427E
:104AD0006FD103B0F0BD019A33689A4269D138486A
:104AE00003B0BDE8F040FEF7C3BD002B58D1013341
:104AF000A56023612B6CE3602C64E6E71F46CCE7DE
:104B0000D0E900231A60D0E900325A60876A3B4638
:104B100003E099688268914247D31B689F42F8D1AD
:104B200007607B68436018607860836AAA68986849
:104B300083689342A7D290F820308260062B9ED1E2
:104B4000DEE7D0E90023012180F820101A60D0E9C7
:104B500000325A60FFF744F895E723690133236177
:104B6000B3E71748FEF784FD77E7D0E900231A6022
:104B7000D0E900325A60876A3B4603E09968826850
:104B8000914214D31B689F42F8D107607B68436051
:104B90001860786077E70A48FEF76AFDA06863E767
:104BA0000748FEF765FD2369A1E71F46B8E71F46E2
:104BB000EBE7FCF71DFC00BF00080020F03E0020E2
:104BC000A0EF00080000000000000000000000004E
:104BD00030B5154C83B0236801930546202383F339
:104BE0001188FFF7F5FDFEF7E3FD2846FFF728FFE4
:104BF000FEF7FEFDFFF704FE0C4B1A689A4204D044
:104C0000996993688A689A4208D3002383F31188CC
:104C1000019A23689A4205D103B030BD0448FEF7DB
:104C200027FDF2E7FCF7E4FB00080020F03E00203F
:104C300080EF0008000000000000000000000000FD
:104C40002DE9F043DFF800813C4FD8F80030BE6911
:104C500083B005460193002864D0202383F3118894
:104C6000FFF7B6FDFEF7A4FD336C002B5ED09B680A
:104C7000B34202D03248FEF7FBFC2B69002B49DD22
:104C8000013B2B615BBB336CAB4202D02C48FEF77F
:104C9000EFFCEB683364FEF783FE2B689D423ED049
:104CA000D6E910495CB1FEF77BFE23689C4203D035
:104CB0009B68994538BF9946E468002CF3D1C6F843
:104CC00008902B6801222A611A682A605560AB603F
:104CD0001A6CEA6018461D640021FFF779F8FEF7A8
:104CE00087FDFFF78DFD3B68BB4204D0BA699B6826
:104CF00092689A420AD3002383F31188019AD8F864
:104D000000309A4217D103B0BDE8F0830D48FEF79A
:104D1000AFFCF0E70A48FEF7ABFC2B69B0E70023D5
:104D2000AB60DCE70648FEF7A3FC96E70448FEF715
:104D30009FFC336C9BE7FCF75BFB00BFF03E002061
:104D4000B0EF000880EF000800080020000000001D
:104D50002DE9F041DFF8D880334BD8F800209E6968
:104D600082B005460192FEF71BFE002D4FD0336C3A
:104D7000002B52D09B68B34202D02C48FEF778FC3F
:104D80002B69002B3EDD013B2B61002B32D1336CB4
:104D9000AB4202D02548FEF76BFCEB683364FEF7AC
:104DA000FFFD2B689D4223D0D6E910475CB1FEF78A
:104DB000F7FD23689C4203D09B689F4238BF1F4683
:104DC000E468002CF3D1B7602868019901232B61B6
:104DD00003682B60D8F800205D60A860036CEB606E
:104DE000914205641ED102B0BDE8F041FEF7F8BE65
:104DF0000023AB60019AD8F800309A4212D102B079
:104E0000BDE8F0810948FEF733FC2B69BBE7074892
:104E1000FEF72EFC336C002BACD10448FEF728FCC7
:104E2000336CA7E7FCF7E4FAF03E0020C0EF00087F
:104E3000000800200000000000000000000000004A
:104E400070B5114E82B0044633680193FEF780FDC1
:104E50009CB12068A0420AD06FF00105036823606E
:104E60005C60FEF7BDFE85622068A042F6D1019A23
:104E700033689A4205D102B070BD0448FEF7F8FBD2
:104E8000E7E7FCF7B5FA00BF00080020E0EF0008F4
:104E900030B5164C83B0236801930546202383F375
:104EA0001188FFF795FCFEF783FC2846FFF7C8FF43
:104EB000FFF776F8FEF79CFCFFF7A2FC0C4B1A6894
:104EC0009A4204D0996993688A689A4208D3002369
:104ED00083F31188019A23689A4205D103B030BD4B
:104EE0000448FEF7C5FBF2E7FCF782FA0008002051
:104EF000F03E0020D0EF000800000000000000009D
:104F00002DE9F0411E4F1F4E3B68B46982B0054643
:104F10000193FEF745FD65B3236C33B3B369D3F852
:104F200040804046FFF714FF2E46A5622B4603E063
:104F30009968A268914216D31B689D42F8D12660F9
:104F40007368636007201C607460FEF7C9FE40460A
:104F5000A46AFFF775FD019A3B689A4220460CD17E
:104F600002B0BDE8F0811E46E9E70748FEF780FB86
:104F7000D4E70548FEF77CFBCEE7FCF739FA00BF23
:104F800000080020F03E002000F0000800000000B3
:104F900030B5164C83B0236801930546202383F374
:104FA0001188FFF715FCFEF703FC2846FFF7A8FF62
:104FB0000546FEF71DFCFFF723FC0D4B1A689A42CD
:104FC00004D0996993688A689A4209D3002383F3CD
:104FD0001188019A23689A42284605D103B030BD52
:104FE0000448FEF745FBF1E7FCF702FA0008002051
:104FF000F03E0020D0EF000800000000000000009C
:105000002DE9F0431D4F83B03C68019491460C4656
:105010009846064660B359B3202383F31188FFF7FF
:10502000D7FB174DFEF7C4FB336823603460AB69D0
:1050300063600023C4E90338C4F80890FEF7D8FB86
:10504000FFF7DEFB2B68AB4204D0AA699B6892682D
:105050009A4209D3002383F31188019A3B689A424C
:105060000AD103B0BDE8F0830648FEF701FBF1E783
:105070000548FEF7FDFACFE7FCF7BAF90008002073
:10508000F03E002010F0000820F0000800000000B2
:1050900070B5164C82B0236801930546202383F334
:1050A0001188FFF795FBFEF783FB0023EE68EB60AA
:1050B000FEF79EFBFFF7A4FB0D4B1A689A4204D043
:1050C000996993688A689A4209D3002383F3118807
:1050D000019A23689A42304605D102B070BD054856
:1050E000FEF7C6FAF1E7FCF783F900BF00080020DD
:1050F000F03E002010F0000800000000000000005A
:1051000070B5184E82B00446336801930D46FEF721
:105110001FFC0CB3E16B94F8203029430A2BE163A8
:1051200016D00B2B05D0019A33689A4218D102B0E1
:1051300070BDA36A8B43F6D1019A336800219A426D
:10514000A1620DD1204602B0BDE87040FEF748BD17
:10515000A36A1942F0D1E6E70348FEF789FAD9E7D6
:10516000FCF746F90008002060F00008000000008D
:10517000F0B5134F83B006463B6801930D46FEF72A
:10518000E7FBB6B13468A6420DD0E3682B43E36079
:1051900015B12269134203D0D4E90101FFF7B0FF32
:1051A0002468A642F1D1019A3B689A4205D103B026
:1051B000F0BD0448FEF75CFAE4E7FCF719F900BF1C
:1051C0000008002040F0000800000000000000007F
:1051D0002DE9F041DFF87C801C4CD8F80030A5693F
:1051E00082B006460193202383F31188FFF7F0FA7B
:1051F000FEF7DEFAEB6B13EA060706D1AE620A2071
:10520000FEF76EFDEB6B03EA060723EA0703EB6389
:10521000FEF7EEFAFFF7F4FA2368A34204D0A2697E
:105220009B6892689A420BD3002383F31188019AFA
:10523000D8F800309A42384606D102B0BDE8F08175
:105240000348FEF715FAEFE7FCF7D2F8F03E00202E
:1052500010F000080008002000000000000000001E
:1052600070B50C4CC16082B0266801960A4400609B
:10527000019E02612268069D4060C0E905119642C8
:105280004FF00001C3618160056201D102B070BDC1
:10529000FCF7AEF80008002000000000000000004D
:1052A00070B5164D82B004462B6801930E46FEF78A
:1052B0004FFBFEF74DFBD4E905239A42A36816D0B5
:1052C0000133511CA36061611670D4E904329A4223
:1052D0000AD220460021FFF703F90020019A2B682B
:1052E0009A4209D102B070BDE3686361F1E7002B17
:1052F000E6D06FF00300F1E7FCF77AF80008002031
:10530000F0B5234F83B03B68019304460E4620233B
:1053100083F31188FFF75CFAFEF74AFAE36943B1B9
:105320002046984705E031462046FFF7B1F8051EB4
:1053300010DBFEF70DFBA368002BF4D0A1692069F8
:105340004A1C013B8242A360A26128BFE3680D783A
:1053500028BFA361FEF74CFAFFF752FA0D4B1A680B
:105360009A4204D0996993688A689A4209D30023C3
:1053700083F31188019A3B689A42284605D103B00D
:10538000F0BD0548FEF774F9F1E7FCF731F800BF0E
:1053900000080020F03E002070F00008000000002F
:1053A0002DE9F04FDFF8F490044685B0D9F80000FD
:1053B00003908A461D46D4F81C809346002A60D08C
:1053C000202383F311880193FFF702FAFEF7F0F927
:1053D0002F4E0027B8F1000F07D02046C04704E049
:1053E00029462046FFF754F860BBFEF7B1FAA368E0
:1053F000002BF5D0A269013B511CA161A360137879
:105400000AF8013B2369A2699A4224BFE368A361B9
:10541000FEF7EEF9FFF7F4F93368B34204D0B2694E
:105420009B6892689A4228D3002383F3118801373E
:10543000BB4519D0019B83F31188FFF7C9F9FEF72B
:10544000B7F9C7E7FEF7D4F9FFF7DAF93368B342E3
:1054500007D0B2699B6892689A4202D20D48FEF763
:1054600007F9002383F31188039AD9F800309A4290
:1054700038460AD105B0BDE8F08F0648FEF7F8F8C7
:10548000D2E70548FEF7F4F89AE7FBF7B1FF00BF53
:10549000F03E002070F0000880F0000800080020B6
:1054A00070B50B4D82602E68C16082B0C0E900000B
:1054B00001960A44019E02612A68069C9642C0E950
:1054C0000511C0E9073401D102B070BDFBF790FFB0
:1054D00000080020000000000000000000000000A4
:1054E0002DE9F0412E4F82B03B6801930446884677
:1054F0001646202383F31188FFF76AF9FEF758F95F
:1055000005E031462046FEF7C3FF051E2DDBFEF702
:105510001FFAA368002BF4D06269013B511C616142
:10552000A36082F80080D4E904329A4224BFE36881
:105530006361E3690BB120469847FEF759F9FFF71D
:105540005FF9184B1A689A4204D0996993688A687F
:105550009A421ED3002585F31188019A3B689A422E
:1055600028461AD102B0BDE8F081FEF741F9FFF7F5
:1055700047F90C4B1A689A4207D0996993688A6870
:105580009A4202D20848FEF773F8002383F3118889
:10559000E3E70548FEF76CF8DCE7FBF729FF00BFFF
:1055A00000080020F03E002070F00008000000001D
:1055B00070B5154E82B0044633680193FEF7C8F902
:1055C000FEF7C6F9D4E905329342A36815D02069E5
:1055D000511C0133A360A161814215780AD2204693
:1055E0000021FEF77DFF2846019A33689A4209D1CF
:1055F00002B070BDE368A361F1E7002BE7D06FF064
:105600000200F1E7FBF7F4FE0008002000000000B4
:105610002DE9F04F04463B48D4F81C90006885B053
:105620000D46039001931646002A61D04FF0200AE0
:105630008AF31188FFF7CCF8FEF7BAF84FF00008AC
:10564000314FC346FEF784F9A368002B32D062695C
:10565000013B511C6161A3602B781370D4E90432C3
:105660009A4224BFE36863610135B9F1000F01D0AC
:105670002046C847FEF7BCF8FFF7C2F83B68BB42BC
:1056800007D0BA699B6892689A4202D21F48FDF718
:10569000EFFF8BF31188013E08F101081FD08AF358
:1056A0001188FFF795F8FEF783F8FEF751F9A36824
:1056B000002BCCD101992046FEF7EAFE0028C1D08C
:1056C000FEF796F8FFF79CF83B68BB4204D0BA6936
:1056D0009B6892689A420FD3002383F31188094B89
:1056E000039A1B689A4240460AD105B0BDE8F08F84
:1056F0000748FDF7BDFF99E70448FDF7B9FFEBE761
:10570000FBF776FE00080020F03E002070F0000855
:1057100090F0000800000000000000000000000001
:1057200030B50B490B4A0B680B4D0C4C83B022F083
:105730000702019301980A4B09682A6023F00703C6
:105740008842236001D103B030BDFBF751FE00BF9A
:1057500000080020B74E002064450020604500206E
:105760000000022000000000000000000000000017
:1057700070B51C4E82B0336801930446202383F336
:105780001188FFF725F8FEF713F8FEF7E1F8164A3F
:10579000164B15681B68E01D20F007005B1B984244
:1057A0009ABF401910600025FEF722F8FFF728F88D
:1057B0000F4B1A689A4204D0996993688A689A4292
:1057C00009D3002383F31188019A33689A4228464B
:1057D00005D102B070BD0748FDF74AFFF1E7FBF7BE
:1057E00007FE00BF0008002064450020604500203F
:1057F000F03E0020B0F000080000000000000000B3
:1058000000B50B4B0B481A6883B0019201991A68D6
:10581000094B036091424FF00003C0E9023305D108
:10582000103003B05DF804EBFFF7EAB8FBF7E0FDDA
:1058300000080020684500207157000800000000A3
:1058400080B50D4A0D4982B000AF13687B604B688C
:1058500023F001034B60EFF30983683383F3098876
:10586000002383F3118879681368994202D10837BD
:10587000BD4680BDFBF7BCFD0008002030EF00E016
:10588000B0B5194C82B000AF23687B60202383F34E
:105890001188164B5B6813F4006308D183F31188F9
:1058A0007A6823689A421DD10837BD46B0BDF1EE33
:1058B000103AEFF309854FF080720D4B45F84C2CF0
:1058C000DB6845F8083CA5F1680383F30988FEF717
:1058D000C7FA18B1074B45F8503CE1E7064B45F8CD
:1058E000503CDDE7FBF784FD0008002000ED00E000
:1058F00030EF00E0E1020008F402000800000000C0
:1059000010B5184C82B02368019302F0C1FA164812
:1059100003F056FF00F0D4F800F0CAF900F010FAD6
:1059200000F03EFA00F06CFA00F09AFA00F0C8FAC3
:1059300000F0F6FA01F044F901F04AF801F018FA23
:1059400001F086FB01F004FA05F00AFC019A2368D5
:105950009A4204D102B0BDE8104001F061BBFBF7F0
:1059600047FD00BF0008002040F6000800000000CE
:10597000F0B51A4D83B02B68019391420E46144640
:10598000074619D38B1A1F2B16D806F01F03581C75
:105990006209012376098340B24203F1FF3304F028
:1059A0001F0457F822000BD31840E040019A2B68DF
:1059B0009A4210D103B0F0BD0948FDF759FEE4E763
:1059C00057F82610C4F120020B4020FA04F403FA21
:1059D00002F02043EAE7FBF70BFD00BF00080020C0
:1059E000C0F00008000000000000000000000000FF
:1059F000F0B51D4E83B033680193054670B37E2227
:105A00007F212846FFF7B4FF80B1012806D000208F
:105A1000019A33689A4225D103B0F0BD284630225E
:105A20004521FFF7A5FF01308002F1E73E22492121
:105A30002846FFF79DFF2F22044631212846FFF715
:105A400097FF5022074653212846FFF791FF013464
:105A500002370938BC4004FA00F0D9E70348FDF7E3
:105A600007FECCE7FBF7C4FC00080020E0F00008CC
:105A7000F0B5104D83B02B680193044698B194F8AB
:105A8000D63094F8D770019994F8D4602A6894F8C5
:105A9000D5001B0403EB07633344914203EB002062
:105AA00005D103B0F0BD0448FDF7E2FDE7E7FBF7E1
:105AB0009FFC00BF0008002000F10008000000006B
:105AC00000B5074B83B01A680192019A1B689A428D
:105AD00004D103B05DF804EB02F09ABAFBF788FC3E
